:100000000C9424010C94D8020C94F8020C941C0457
:100010000C94BA030C9441010C9441010C944101DD
:100020000C9441010C9441010C94D2050C944101B3
:100030000C9441010C94F00B0C9441010C9441017F
:100040000C9441010C9441010C9441010C94410128
:100050000C9441010A000A44656275742050726F65
:100060006772616D6D650A000A4A757374206120BC
:1000700073696D706C6520636F756E746572207046
:10008000726F6772616D0A0A0054686520526F6270
:100090006F74206E6565647320746F2062652072D2
:1000A00065736574746564206E6F772E0A0A005953
:1000B0006F75206E65656420746F20636865636B7F
:1000C000204D6F746F7220617373656D626C79205F
:1000D000286F7220796F757220736F667477617202
:1000E00065292E0A0A000A0A28732E207461736B90
:1000F0005F6D6F746F72436F6E74726F6C2829201E
:1001000066756E6374696F6E20696E205250364C4E
:10011000696221290A000A0A232323204D4F544FE4
:1001200052204F56455243555252454E5420232398
:10013000230A00596F75206E65656420746F206313
:100140006865636B20456E636F6465722F4D6F74D5
:100150006F7220617373656D626C7920286F7220F5
:10016000796F757220736F667477617265292E0AD4
:100170000A00210A0A28732E207461736B5F6D6F69
:10018000746F72436F6E74726F6C28292066756E7F
:100190006374696F6E20696E205250364C6962211B
:1001A000290A005249474854004C454654004166CC
:1001B000666563746564206368616E6E656C3A00A1
:1001C0000A23232320454E434F44455220284F52B3
:1001D000204D4F544F5229204D414C46554E4354CB
:1001E000494F4E21202323230A00232323232320A6
:1001F000414C4C204F5045524154494F4E5320538F
:10020000544F5050454420544F2050524556454E6F
:100210005420414E592044414D414745212023233C
:100220002323230A000A0A232323232320454D45A1
:100230005247454E43592053485554444F574E203A
:1002400023232323230A000011241FBECFE5D8E077
:10025000DEBFCDBF10E0A0E6B0E0E4ECFAE102C002
:1002600005900D92AA36B107D9F711E0AAE6B0E0E1
:1002700001C01D92A231B107E1F70E9443010C9425
:10028000610D0C9400000E94B10786ED91E00E9480
:1002900046020E94B30580E00E9430036AE58AE5C9
:1002A0000E941E03D09AD198D89888E690E00E94C8
:1002B000720C86E590E00E94720C0E94B20AD89AF5
:1002C00081E090E00E94C40BD89810926B001092CD
:1002D0006A0010926D0010926C0081E00E946B0227
:1002E0009093840080938300892B39F380916A0076
:1002F00090916B00019690936B0080936A0080E070
:1003000090E00E94C40B81E00E946B0290938400F5
:1003100080938300892B51F720916A0030916B0004
:1003200084E690E0AC01249FC001259F900D349F8E
:10033000900D11246AE370E00E94180DCB017093B8
:100340006D0060936C006AE00E94500C84E590E0C0
:100350000E94720C80916C0090916D00099748F496
:1003600080916E0090916F008333910510F4019697
:1003700007C080916E0090916F00009779F001970F
:1003800090936F0080936E0080916E0090916F004B
:10039000089720F089E00E9424028FCF80E00E941D
:1003A000240260E080E00E941E0387CF80919C00C1
:1003B000882321F48091F500882361F060E080E0DB
:1003C0000E941E0380E10E9424028091C700816088
:1003D0008093C70008958091B000843010F010928F
:1003E000B000089584E08093B000089587B38C77BF
:1003F00087BB88B38C7788BB2091850023FF02C020
:10040000BF9AC79A24FF02C0B99AC19A25FF02C0B9
:10041000B89AC09A84B38F7884BB85B38F7885BB34
:1004200084B3922F9295907F9077892B84BB85B36C
:10043000892B85BB9091B000992319F4922F21113B
:1004400091E09093B0000895809385000E94F6019A
:100450000895C098B898000096B38091850085FFF4
:1004600002C0B89AC09A9170892F99270895AE98C2
:10047000A698000093B38091850082FF02C0A69ADF
:10048000AE9A9074892F99270895089590936900E2
:100490008093680008951F938091E6008333C8F02D
:1004A0000E942902182F0E943702982F80919C00E9
:1004B000811721F48091F500891749F010939C0071
:1004C0009093F500E0916800F09169000995109211
:1004D000E6001F910895369B03C080E090E00895E8
:1004E000806487B986ED86B93699FECF349A84B197
:1004F00095B10895806487B986ED86B908953699D7
:1005000056C020918100233051F1243028F421304D
:1005100099F02230E0F408C0253089F1253038F117
:10052000263009F041C033C084B195B19093F900F1
:100530008093F80086E407C084B195B19093FE00E3
:100540008093FD0085E487B986ED86B92DC084B11E
:1005500095B19093EF008093EE0083E4F4CF84B1E3
:1005600095B19093BA008093B90082E4ECCF84B146
:1005700095B19093E0008093DF0080E4E4CF84B1F4
:1005800095B1909387008093860081E4DCCF84B19D
:1005900095B1909384008093830087E487B986EDBA
:1005A00086B91092810008952F5F209381000895ED
:1005B0001F920F920FB60F9211248F939F938091E9
:1005C000F3009091F40001969093F4008093F3006F
:1005D0008091EB009091EC0001969093EC00809359
:1005E000EB009F918F910F900FBE0F901F90189569
:1005F0001F920F920FB60F9211248F939F938091A9
:10060000E7009091E80001969093E8008093E7005E
:100610008091C1009091C20001969093C200809396
:10062000C1009F918F910F900FBE0F901F90189552
:10063000089590936700809366000895893C08F0C0
:1006400088EC99279093A2008093A100693C08F060
:1006500068EC862F99279093A00080939F000895BF
:10066000982F80937400109270008150823018F49B
:1006700081E080937000913019F481E090E007C030
:1006800020E030E0933011F421E030E0C9018093A4
:100690007100089520E030E080918200837011F4B1
:1006A00021E030E0C90108951092A2001092A1004B
:1006B0001092A00010929F001092AC001092AB001C
:1006C0001092E5001092E400809182008C7F80936C
:1006D00082008093F700E0916600F0916700099531
:1006E0000895282F633D08F062ED862F9927909397
:1006F000C0008093BF00822F233D08F082ED992730
:100700009093B2008093B10008958093720060933B
:1007100073008093700060937100882311F0AA9A8F
:1007200001C0AA98662311F0AB9A0895AB9808957A
:10073000282F03C089B7806889BF8091A6008823CD
:10074000C9F7862F99278F73907033272F733070D6
:1007500046E0220F331F4A95E1F73063822B932B3B
:100760009093C4008093C3008091A500806480931F
:10077000A50008951F920F920FB60F9211242F9388
:100780008F939F93809161008230B0F5209180001B
:100790002223C1F02C3338F48091DD009091DE00EB
:1007A00096FD09C006C08091DD009091DE0096FFA5
:1007B00002C0979803C082B3805882BB2150209317
:1007C000800032C08091A6008823A1F09798809184
:1007D000DD009091DE00880F991F9093DE008093DA
:1007E000DD0088E7809380008091A600815080938F
:1007F000A6001AC0979818C08091AA00882391F08B
:100800008091A50080FD05C088B390E4892788BB4E
:1008100003C085B3805885BB8091AA008150809326
:10082000AA0002C0C69AAF9A9F918F912F910F9004
:100830000FBE0F901F9018951F920F920FB60F9238
:1008400011248F9380916100833011F0863079F408
:100850008091A50084FD0BC08091A50085FF07C095
:10086000B29905C08091F6008F5F8093F60086B341
:100870008091A5008D7F8093A5008F910F900FBE72
:100880000F901F90189508959093630080936200D5
:100890000895089590936500809364000895809171
:1008A000BB009091BC00029708F42BC18091A50079
:1008B00084FD06C180916100823009F469C08330F3
:1008C00030F4882371F0813009F000C111C0853007
:1008D00009F4A6C0863009F4BBC0833009F0F6C025
:1008E0006FC089B78F7789BF9798C69AAF9AEEC0C5
:1008F0008091A600882351F58091A50086FF14C041
:100900008091C3009091C4009093DE008093DD003D
:100910008EE08093A6008091A5008F7B8093A50038
:1009200089B7806889BF06C089B78F7789BF9798D4
:10093000C69AAF9A80917F008F5F80937F0081502D
:10094000803138F082E08093610003C089B780680D
:1009500089BF8091A50083FFB9C0E0916200F0914A
:1009600063008091FA009091FB0009958091FA0054
:100970009091FB009093AE008093AD001092FB002D
:100980001092FA008091A500877F8093A5009EC0F9
:1009900089B78F7789BF9798C69AAF9A1092AA00A5
:1009A0001092F60010927E0010927D008091A500BA
:1009B0008E7F80628093A50083E080937F001CC0BF
:1009C0008091AA00882381F480917F008F5F8093BB
:1009D0007F008150833040F089B7806889BF8EE105
:1009E0008093AA0010927F008091F600843038F046
:1009F00081E08093D90085E08093610067C0809199
:100A00007D0090917E00019690937E0080937D0002
:100A10000197409708F45AC01092D90085E045C06C
:100A200089B78F7789BF9798C69AAF9A1092AA0014
:100A30001092F60010927E0010927D008091A50029
:100A400081628093A50083E080937F0086E0D4CF0D
:100A50008091AA00882381F480917F008F5F80932A
:100A60007F008150833040F089B7806889BF8EE174
:100A70008093AA0010927F008091F600843030F0BD
:100A80001092F60081E08093E200B6CF80917D0065
:100A900090917E00019690937E0080937D00019757
:100AA0004097A0F01092E20081E08093610089B746
:100AB0008F7789BF9798C69AAF9A1092AA0006C0FE
:100AC00010927E0010927D0010927F002091D9003C
:100AD00080917C00821731F490917B008091E2003C
:100AE000981759F020937C008091E20080937B005E
:100AF000E0916400F091650009951092BC0010929D
:100B0000BB0008951092610089B78F7789BF9798CD
:100B1000C69AAF9A1092E2001092D900089589B750
:100B20008F7789BF9798C69AAF9A1092E200109279
:100B3000D90081E08093610008958E989698BB98C3
:100B4000C398C698AF9808958E9A969ABB98C39802
:100B500008958E989698BB9AC39A08958E9A969AFD
:100B6000BB9AC39A0895C49A8091B000843018F457
:100B700083E08093B0000895C4988091B0008430E1
:100B800080F4882319F081E090E009C020E030E093
:100B900080918500882311F021E030E0C901809325
:100BA000B00008951F920F920FB60F9211242F9349
:100BB0003F934F935F936F937F938F939F93AF93E5
:100BC000BF938091ED008F5F8093ED008091F000E6
:100BD0008F5F8093F00081508A3008F447C1809184
:100BE000C70080FF09C08091C8009091C90001969C
:100BF0009093C9008093C8008091C70081FF09C00D
:100C00008091CA009091CB0001969093CB00809385
:100C1000CA008091C70082FF09C08091CC009091EA
:100C2000CD0001969093CD008093CC008091C700B9
:100C300083FF09C08091CE009091CF0001969093E0
:100C4000CF008093CE008091C70084FF09C08091BF
:100C5000D0009091D10001969093D1008093D00064
:100C60008091C70085FF09C08091D2009091D30088
:100C700001969093D3008093D2008091C70086FFA5
:100C800009C08091D4009091D50001969093D50031
:100C90008093D4008091C70087FF09C08091D6005F
:100CA0009091D70001969093D7008093D6008091C1
:100CB000E3008F5F8093E3008150893CE8F08091EE
:100CC000C1009091C2009093F2008093F100809156
:100CD000EB009091EC009093B4008093B3001092DD
:100CE000C2001092C1001092EC001092EB0081E063
:100CF0008093AF001092E3004091B000433008F0C1
:100D000052C0423081F580918500882301F58091A1
:100D1000790090917A009C012F5F3F4F30937A00C9
:100D20002093790068EC70E00E94180D892BD9F5AA
:100D3000215A3F4028F0B998C1981092B00029C0BC
:100D400087B3842787BB88B3842788BB2CC084FDE6
:100D500002C0B998C19810927A001092790081E08F
:100D60008093B00020C08091790090917A002EE2AB
:100D7000813E920798F0413049F41092B000809182
:100D8000850084FD06C0B998C19803C082E08093B5
:100D9000B00010927A001092790005C001969093ED
:100DA0007A00809379008091BB009091BC000397FA
:100DB00048F48091BB009091BC0001969093BC00D8
:100DC0008093BB008091DB00873318F48F5F8093A2
:100DD000DB008091E600843328F48091E6008F5F89
:100DE0008093E6008091E1008F5F8093E100815065
:100DF0008330D0F18091DC00482F55272091BF002F
:100E00003091C0004217530759F04217530714F4AA
:100E10008F5F01C081508093DC008091DC008ABD2F
:100E20008091FC00482F55272091B1003091B200ED
:100E30004217530759F04217530714F48F5F01C04C
:100E400081508093FC008091FC0088BD8091FC0063
:100E5000882321F48091DC00882319F082EA8FBD79
:100E600001C01FBC1092E1001092F0008091A5001B
:100E700083FD52C02091750030917600409177003B
:100E80004F5F40937700463190F036FD09C035FF43
:100E900007C03093FB002093FA0088608093A50080
:100EA0008091A5008F7E8093A50020E030E0909196
:100EB000780086B3892782FF24C0909590937800AC
:100EC000473068F48091A5008F7E8093A5008091C3
:100ED000A50080618093A50020E030E00CC02115C2
:100EE0003105A1F04F3068F08091A50080618093BA
:100EF000A50036FD02C0220F331F92FF2160109221
:100F00007700309376002093750006C08091A5008D
:100F100080618093A500EFCFBF91AF919F918F919A
:100F20007F916F915F914F913F912F910F900FBEE5
:100F30000F901F901895982F1092ED008091ED0062
:100F40008917E0F3089501C0000001972FEF8F3F4C
:100F50009207D1F70895D49ADC9A0895DC98D49832
:100F600008951BBA18BA15BA81E082BB1ABA88E58F
:100F700087BB8CE884BB82EF81BBF894C598BD9A8F
:100F800087B397980E949D0510BC8CE089B91BB867
:100F900086E880BD88E98AB917B886E186B910BEAF
:100FA00085E085BF80EE8BBF14BE8AE083BF83E6F9
:100FB0008CBF82EA8FBD81E18EBD82ED90E097BD4E
:100FC00086BD1ABC18BC60E080E00E94850389E001
:100FD00085BD8EE683BD82E089BF8091A5008160DA
:100FE0008093A50081E080936100789408951F9319
:100FF000182FF89497980E949D051092B2001092B5
:10100000B1001092C0001092BF001092AC0010927C
:10101000AB001092E5001092E4001092FC001092D8
:10102000DC001ABC18BC1FBC0E94BC0585E292E023
:101030000E94720C8AEE91E00E94720C812F815006
:101040008230C0F480EC91E00E94720C8EEA91E054
:101050000E94720C113019F489EA91E002C083EA0F
:1010600091E00E94720C82E791E00E94720C83E38F
:1010700091E00CC0133061F486E191E00E94720CA3
:1010800086EE90E00E94720C8FEA90E00E94720C53
:1010900089E890E00E94720C86E30E9424022AE014
:1010A00016C0000001973FEF8F3F9307D1F7215003
:1010B00071F480E00E9424022AE00CC00000019735
:1010C0003FEF8F3F9307D1F7215021F4E5CF8FEF0A
:1010D0009FE7E7CF8EEF9FEFF1CF8091DB00823368
:1010E00008F47CC01092DB008091D800882309F0BE
:1010F00041C08091FD009091FE008350934038F4F0
:101100008091EE009091EF0083509340F0F0809139
:10111000DA008F5F8093DA008AE08093D800109223
:10112000B2001092B1001092C0001092BF00109255
:10113000AC001092AB001092E5001092E400809198
:1011400082008460809382000895809182008B7F6A
:10115000809382008091A700853628F01092DA00F3
:101160001092A70007C08091DA00833018F083E066
:101170000E94F7078091FD009091FE00863991054D
:1011800098F48091B3009091B400892B69F4809118
:10119000A1009091A200892B39F08091FC00873941
:1011A00018F081E00E94F7078091EE009091EF0027
:1011B0008639910598F48091F1009091F200892B85
:1011C00069F480919F009091A000892B39F0809163
:1011D000DC00873918F082E00E94F7078091AF00A9
:1011E000882309F4B1C18091D800882309F0A7C1F0
:1011F0008091DA00882331F08091A7008F5F80937F
:10120000A70002C01092A7004091820041FF38C0A1
:101210002091F3003091F40080919D0090919E0008
:101220002817390780F01092A2001092A1001092A6
:10123000AC001092AB001092B2001092B1004D7F42
:10124000409382001DC02091F3003091F400809102
:10125000B5009091B6002817390790F08091A10051
:101260009091A200969587959093A2008093A100FB
:10127000469730F486E190E09093A2008093A1001D
:101280004091820040FF38C02091E7003091E80093
:101290008091BD009091BE002817390780F0109210
:1012A000A00010929F001092E5001092E4001092AE
:1012B000C0001092BF004E7F409382001DC020915D
:1012C000E7003091E8008091E9009091EA0028174A
:1012D000390790F080919F009091A0009695879596
:1012E0009093A00080939F00469730F486E190E0B1
:1012F0009093A00080939F004091700080917200B5
:10130000481739F49091710080917300981709F48F
:1013100079C02091A1003091A2002115310531F44E
:1013200080919F009091A000892B61F13093A400DF
:101330002093A30080919F009091A0009093B8000B
:101340008093B7001092A2001092A1001092A0000A
:1013500010929F008091AB009091AC0062E070E031
:101360000E942C0D7093AC006093AB008091E40060
:101370009091E50062E070E00E942C0D7093E50012
:101380006093E4008091F1009091F2004A97D0F4CC
:101390008091B3009091B4004A97A0F48091A1008D
:1013A0009091A200892B71F480919F009091A000F0
:1013B000892B41F41092C0001092BF001092B2002D
:1013C0001092B1008FB58823E9F460917100842FE9
:1013D0000E9485038091A3009091A4009093A200A5
:1013E0008093A1008091B7009091B8009093A000E5
:1013F00080939F001092AC001092AB001092E50019
:101400001092E4004091A1005091A2008091B3009D
:101410009091B4009A01281B390B8091AB009091F8
:10142000AC00280F391F3093AC002093AB0081E053
:10143000253A38071CF084EA91E005C02C553E4F50
:1014400034F48CE59EEF9093AC008093AB008091D8
:10145000B3009091B400892B39F4452B29F41092F4
:10146000AC001092AB0018C08091AB009091AC0022
:1014700062E070E00E942C0D7093B2006093B100A6
:10148000633D71053CF082ED90E09093B200809353
:10149000B10006C077FF04C01092B2001092B100F4
:1014A00040919F005091A0008091F1009091F20036
:1014B0009A01281B390B8091E4009091E500280FD8
:1014C000391F3093E5002093E40081E0253A380786
:1014D0001CF084EA91E005C02C553E4F34F48CE5B5
:1014E0009EEF9093E5008093E4008091F10090914D
:1014F000F200892B39F4452B29F41092E500109263
:10150000E40018C08091E4009091E50062E070E092
:101510000E942C0D7093C0006093BF00633D710565
:101520003CF082ED90E09093C0008093BF000AC031
:1015300077FF08C01092C0001092BF0003C0815016
:101540008093D8001092AF00909182008091F700B4
:10155000891739F09093F700E0916600F0916700E9
:10156000099508950E947F020E944F040E944B0239
:101570000E946D0808950F931F93CF93DF93382F28
:10158000162FEA01022F80918200836080938200EF
:101590001092EA001092E9001092B6001092B50085
:1015A000373180F0832F9927880F991F481B590BDB
:1015B000CA0144979093EA008093E9009093B600A3
:1015C0008093B500CE0102979093BE008093BD003A
:1015D00090939E0080939D00C832D105B8F484E1B9
:1015E00090E09093BE008093BD0090939E00809306
:1015F0009D008AE090E09093EA008093E900909348
:10160000B6008093B500C8E2D0E004C051E0C03914
:10161000D50798F4393288F0CE019695879596953E
:1016200087959E01281B390B3093EA002093E9002F
:101630003093B6002093B50038E21092F400109277
:10164000F3001092E8001092E700632F832F0E94AE
:101650001E03812F0E943003D093C600C093C500A3
:10166000D093A900C093A800809182008093F700D6
:10167000E0916600F09167000995002319F406C017
:101680000E94B20A809182008370D1F7DF91CF91DE
:101690001F910F910895FF920F931F93CF93DF93A4
:1016A000182F062FF22E8091820083608093820093
:1016B00066277727CB01BA0120EB32E040E050E00B
:1016C0000E94F90C24E630E040E050E00E943F0D1B
:1016D000E901C901845690409093EA008093E900A3
:1016E0009093B6008093B5003093BE002093BD0068
:1016F00030939E0020939D0028323105B0F484E1A0
:1017000090E09093BE008093BD0090939E008093E4
:101710009D008AE090E09093EA008093E900909326
:10172000B6008093B500C8E2D0E0612F812F0E94FF
:101730001E03802F0E9430031092F4001092F300D9
:101740001092E8001092E700D093C600C093C50045
:10175000D093A900C093A800809182008093F700E5
:10176000E0916600F09167000995FF2019F406C02A
:101770000E94B20A809182008370D1F7DF91CF91ED
:101780001F910F91FF9008959C0106C01092ED00EB
:101790008091ED008A30E0F3215030408FEF2F3FF1
:1017A0003807A1F708955D9BFECF8CB90895FC0121
:1017B00004C05D9BFECF31968CB980818823C9F728
:1017C0000895FC01E40FF11D05C05D9BFECF31962D
:1017D0008CB961508081882311F06623B1F7089598
:1017E0001F920F920FB60F9211248F939F93EF9336
:1017F000FF93CF93DF93CDB7DEB72197DEBFCDBF89
:101800008CB189838091FF00882391F4909101012C
:10181000E92FFF278981EE5FFE4F80839F5F9093C2
:10182000010180910001981718F082E08093FF0079
:101830002196F894DEBFCDBFDF91CF91FF91EF915C
:101840009F918F910F900FBE0F901F90189510923F
:101850000101809300011092FF0008958091FF0024
:101860008823E1F30895AC0120E030E008C0FF27B1
:10187000DF01AE5FBE4F8C91E40FF51F8083E22F36
:101880002F5F3F4F80910001E81788F381E080933C
:10189000FF0008951092000181E08093FF000895F9
:1018A0000F931F93CF93DF93CDB7DEB761970FB63A
:1018B000F894DEBF0FBECDBF462F55278E010F5FB8
:1018C0001F4FB8010E94C80CC8010E94D70B619637
:1018D0000FB6F894DEBF0FBECDBFDF91CF911F9141
:1018E0000F91089503C05D9BFECF2CB9FC010196BA
:1018F00024912223C1F70895FF920F931F93CF9352
:10190000DF93CDB7DEB761970FB6F894DEBF0FBE99
:10191000CDBFF42E7727AB018E010F5F1F4FB801AB
:101920000E94C80CF80101900020E9F73197E01BF4
:10193000F10B4F2D4E1B141664F480E341505D9B58
:10194000FECF8CB94423D1F7CE0101960E94D70B6C
:1019500005C041956F2DC8010E94E10B61960FB63D
:10196000F894DEBF0FBECDBFDF91CF911F910F91D5
:10197000FF90089510920101809300011092FF00E2
:101980008091FF008823E1F3CB010E94330C08957E
:10199000FB019F01E8944230C4F04532B4F44A3070
:1019A00029F497FB1EF4909581959F4F642F77271C
:1019B0000E94180D805D8A330CF0895D8193CB0104
:1019C0000097A1F716F45DE251931082C9010C94BF
:1019D000E90CDC01FC01672F71917723E1F7329765
:1019E00004C07C916D9370836291AE17BF07C8F3FA
:1019F0000895629FD001739FF001829FE00DF11D59
:101A0000649FE00DF11D929FF00D839FF00D749F78
:101A1000F00D659FF00D9927729FB00DE11DF91F24
:101A2000639FB00DE11DF91FBD01CF011124089581
:101A3000AA1BBB1B51E107C0AA1FBB1FA617B707F4
:101A400010F0A61BB70B881F991F5A95A9F7809510
:101A50009095BC01CD01089597FB092E07260AD069
:101A600077FD04D0E5DF06D000201AF4709561956B
:101A70007F4F0895F6F7909581959F4F0895A1E2C5
:101A80001A2EAA1BBB1BFD010DC0AA1FBB1FEE1FF8
:101A9000FF1FA217B307E407F50720F0A21BB30B43
:101AA000E40BF50B661F771F881F991F1A9469F7BF
:101AB00060957095809590959B01AC01BD01CF011B
:041AC0000895FFCFB7
:0A1AC4000101430449041803450220
:00000001FF
